:10000000DBC027C2E9C0E8C0E7C0E6C03FC2E4C029
:10001000E3C0E2C0E1C0E0C0DFC0DEC0DDC0DCC0E4
:10002000DBC021C1D9C0FEC103C202C201C200C2ED
:10003000FFC1FEC1FDC132C1FBC1FAC1F9C1F8C1A6
:10004000F7C1F6C1F5C12AC1F3C1F2C1F1C1F0C1D6
:10005000EFC1EEC1EDC12AC1EBC1EAC1E9C1E8C1FE
:10006000E7C1E6C1E5C148C1E3C1E2C1E1C1E0C108
:10007000DFC1DEC1DDC11AC1DBC1DAC1D9C1D8C15E
:10008000D7C1D6C1D5C138C1D3C1D2C1D1C1D0C168
:10009000CFC1CEC1CDC137C1CBC1CAC1C9C1C8C191
:1000A000C7C1C6C1C5C141C1C3C1C2C1C1C1C0C1AF
:1000B000BFC1BEC1BDC120C1BBC1BAC1B9C1B8C1F8
:1000C000B7C1B6C1B5C126C1B3C1B2C1B1C1B0C11A
:1000D000AFC1AEC1ADC105C1ABC1AAC1A9C1A8C163
:1000E000A7C1A6C1A5C135C1A3C1A2C1A1C1A0C15B
:1000F0009FC19EC19DC12DC19BC19AC199C198C18B
:1001000097C196C195C125C193C192C191C190C1BA
:100110008FC18EC18DC11DC18BC18AC189C188C1EA
:1001200087C186C185C11FC183C182C181C180C110
:100130007FC17EC17DC12EC17BC17AC179C178C129
:1001400077C176C175C10FC173C172C171C170C170
:100150006FC16EC16DC11EC16BC16AC169C168C189
:1001600067C166C165C11BC163C162C161C160C1B4
:100170005FC15EC15DC125C15BC15AC159C158C1D2
:1001800057C156C155C11DC153C152C151C150C102
:100190004FC14EC14DC126C14BC14AC149C148C121
:1001A00047C146C145C137C143C142C141C140C138
:1001B0003FC13EC13DC12FC111241FBECFE5D4E0D8
:1001C000DEBFCDBF20E0A0E6B0E001C01D92A838A0
:1001D000B207E1F7BDD219C313CF86B78F7786BFB9
:1001E00086B78B7F86BF86B78E7F86BF86B78F7BAD
:1001F00086BF0895089809989C0140E050E060E4AB
:100200007FE180E090E0C4D2822F203148F030E0DE
:1002100020513109C90199230CF4019695958795D0
:1002200080B9089584E690E0E5DF86B7846086BFF4
:100230001092600086B7816086BF86B7806486BFF3
:10024000089591E0611101C090E08E7F982B92B9E2
:1002500008959093620080936100089590936400E4
:100260008093630008951F920F920FB60F9211248E
:100270002F933F934F935F936F937F938F939F93AE
:10028000AF93BF93EF93FF93E1B1E87FF0E0E93CD8
:10029000F10508F0CDC0ED5EFF4F09948091650037
:1002A00083B986B78F70806886BFC2C080916B00AB
:1002B00090916C00891770F4E82FF0E0EA59FF4F35
:1002C00090818F5F80936B0093B986B78F70806841
:1002D00086BFAEC086B78F70806D86BF10926000FB
:1002E000A7C080916D0093B1E82FF0E0E159FF4F76
:1002F00090838F5F80936D0086B78F70806D86BF0F
:100300001092600095C086B78F70806886BF10928B
:1003100060008EC080916D0093B1E82FF0E0E1594C
:10032000FF4F90838F5F80936D0020916D0030E0D0
:1003300080916E0090E00197281739072CF486B75A
:100340008F70806C86BF74C086B78F70806886BFE0
:100350006FC085E08093600010926D0086B78F704B
:10036000806C86BF65C080916D0093B1E82FF0E08E
:10037000E159FF4F90838F5F80936D00853028F4A3
:1003800086B78F70806C86BF53C086B78F708068C9
:1003900086BF4EC086B78F70806886BF49C086B75B
:1003A0008F70806C86BFE0916100F09162003097A1
:1003B00029F06FE670E080916D0009951092600061
:1003C00037C084E080936000E0916300F0916400A6
:1003D000309731F066E670E085E0099580936C0017
:1003E00010926B0080916B00E82FF0E0EA59FF4F0C
:1003F000908193B98F5F80936B0090916C00891707
:1004000028F486B78F70806C86BF12C086B78F7055
:10041000806886BF0DC086B78F70806C86BF1092D3
:10042000600006C086B78F70806D86BF1092600036
:10043000FF91EF91BF91AF919F918F917F916F91BC
:100440005F914F913F912F910F900FBE0F901F9092
:1004500018951F920F920FB60F9211248F938091CF
:100460008600893168F0829B02C081E001C082E091
:10047000809384008091860080938500109286008E
:100480008F910F900FBE0F901F9018951F920F9293
:100490000FB60F9211248F93809186008F5F809307
:1004A00086008F910F900FBE0F901F901895B99AEC
:1004B0008FB580648FBD8EB589608EBD8FE190E071
:1004C0009BBD8ABD85B7816085BF089589B780616E
:1004D00089BF8BB780648BBF089589B78F7E89BF32
:1004E0008BB78F7B8BBF0895109283001092820090
:1004F000089581E0809383001092820010927E0024
:1005000010927B0010927600109275001092740089
:1005100008958230A1F480B382FB882780F980930C
:100520008000811102C0E0DF089581E080938200A5
:100530008093810010927E0010927D000895D4DF98
:10054000089580918500982F92529D3328F082560D
:100550008D3320F482E0089581E0089583E00895CA
:10056000823069F481E090918000911180E0809365
:100570007F008093800081E080937E000895813029
:10058000A1F480917D00882351F010927D0080912C
:10059000800080937F0081E080937E00089581E059
:1005A00080937D0010927E00089510927E009CDF63
:1005B000089570917400772351F110927400FC013A
:1005C00080819181A281B3818F709927AA27BB274F
:1005D000082E82958025082E86958695802590E0A8
:1005E000019681FB222720F930E080917F0090E086
:1005F0002817390711F078DF089580917500861368
:1006000020C081E0FA018083109275000895FC01FA
:100610004081518162817381440F551F661F771F8E
:1006200020917F00422B40835183628373838091AA
:1006300075008F5F80937500837019F481E080935B
:100640007400089580918400882309F449C0809142
:10065000830081110AC080918400823009F042C079
:1006600048DF1092840080E008951092840069DFD2
:1006700090918200911103C04CDF80E0089570DFFB
:1006800080917E00882381F180918100893060F41F
:1006900090917F00992329F08F5F8093810080E003
:1006A000089522DF80E0089580917B00811108C0C9
:1006B0004BE750E068E08CE790E07BDF80E0089556
:1006C00080917600811108C046E750E060E287E73C
:1006D00090E06FDF80E0089500DF06DF81E008959D
:1006E00080E0089580E0089580E008950F931F93BF
:1006F00080917600882349F000917700109178006E
:100700002091790030917A0003C000E010E0980158
:10071000602F712F822F932F1F910F910895FB014E
:100720008081809387000895CF93DF93EB018091C0
:100730008700803121F08FEF888381E006C0D6DF0B
:10074000988389837A836B8384E0DF91CF910895C6
:10075000AEDEB89AC09860E088EC73DD84E993E07F
:100760007DDD8FE893E075DD7894B0DE6BDF882364
:10077000E9F358DDC09A2FEF89E698E121508040D7
:100780009040E1F700C00000C09827DD9FDEEECF6B
:10079000052E97FB16F4009406D057FD0CD013D00D
:1007A00007FC09D07EF490958095709561957F4FF8
:1007B0008F4F9F4F089550954095309521953F4F0D
:1007C0004F4F5F4F0895A1E21A2EAA1BBB1BFD01DC
:1007D0000DC0AA1FBB1FEE1FFF1FA217B307E40720
:1007E000F50720F0A21BB30BE40BF50B661F771F78
:1007F000881F991F1A9469F7609570958095909558
:0E0800009B01AC01BD01CF010895F894FFCF1C
:00000001FF
